{
  "contractName": "SimpleStorage",
  "abi": [
    {
      "inputs": [],
      "name": "num",
      "outputs": [
        {
          "internalType": "uint256",
          "name": "",
          "type": "uint256"
        }
      ],
      "stateMutability": "view",
      "type": "function",
      "constant": true
    },
    {
      "stateMutability": "payable",
      "type": "receive",
      "payable": true
    },
    {
      "inputs": [
        {
          "internalType": "uint256",
          "name": "_num",
          "type": "uint256"
        }
      ],
      "name": "setter",
      "outputs": [],
      "stateMutability": "nonpayable",
      "type": "function"
    },
    {
      "inputs": [],
      "name": "getter",
      "outputs": [
        {
          "internalType": "uint256",
          "name": "",
          "type": "uint256"
        }
      ],
      "stateMutability": "view",
      "type": "function",
      "constant": true
    }
  ],
  "bytecode": "0x608060405234801561001057600080fd5b506101a4806100206000396000f3fe6080604052600436106100385760003560e01c80634e70b1dc14610044578063993a04b71461006f578063d423740b1461009a5761003f565b3661003f57005b600080fd5b34801561005057600080fd5b506100596100c3565b60405161006691906100f5565b60405180910390f35b34801561007b57600080fd5b506100846100c9565b60405161009191906100f5565b60405180910390f35b3480156100a657600080fd5b506100c160048036038101906100bc9190610141565b6100d2565b005b60005481565b60008054905090565b8060008190555050565b6000819050919050565b6100ef816100dc565b82525050565b600060208201905061010a60008301846100e6565b92915050565b600080fd5b61011e816100dc565b811461012957600080fd5b50565b60008135905061013b81610115565b92915050565b60006020828403121561015757610156610110565b5b60006101658482850161012c565b9150509291505056fea26469706673582212201de60077164a7cdc47eec26d42efc0dbdcfa79e8d1540380516217ed9d919a9064736f6c63430008130033",
  "immutableReferences": {},
  "source": "// SPDX-License-Identifier: GPL-3.0\r\n\r\npragma solidity >=0.7.0 <0.9.0;\r\n\r\ncontract SimpleStorage{\r\n    uint public num;\r\n\r\n    function setter(uint _num) public {\r\n        num=_num;\r\n    }\r\n\r\n    function getter() public view returns(uint){\r\n        return num;\r\n    }\r\n\r\n    receive() external payable{\r\n\r\n    }\r\n}",
  "sourcePath": "D:\\Blockchain_Batch-4\\MiniDapp\\contracts\\SimpleStorage.sol",
  "compiler": {
    "name": "solc",
    "version": "0.8.19+commit.7dd6d404.Emscripten.clang"
  },
  "schemaVersion": "3.4.13",
  "updatedAt": "2023-04-24T12:35:03.938Z",
  "networkType": "ethereum",
  "devdoc": {
    "kind": "dev",
    "methods": {},
    "version": 1
  },
  "userdoc": {
    "kind": "user",
    "methods": {},
    "version": 1
  }
}